:020000040800F2
:1000000000000220D10E0008DD030008DF03000815
:10001000E1030008E3030008E50300080000000016
:10002000000000000000000000000000E7030008DE
:10003000E903000800000000EB030008ED030008DE
:10004000210F0008210F0008210F0008210F0008D0
:10005000210F0008210F0008210F0008210F0008C0
:10006000210F0008210F0008210F0008210F0008B0
:10007000210F0008210F0008210F0008210F0008A0
:10008000210F0008210F0008210F0008210F000890
:10009000210F0008210F0008210F0008210F000880
:1000A000210F0008210F0008210F0008210F000870
:1000B000210F0008210F0008210F0008210F000860
:1000C000210F0008210F0008210F0008210F000850
:1000D000210F0008210F0008210F0008210F000840
:1000E000210F0008210F0008210F0008210F000830
:1000F000210F0008210F0008210F0008210F000820
:10010000210F0008210F0008210F0008210F00080F
:10011000210F0008210F0008210F0008210F0008FF
:10012000210F0008210F0008210F0008210F0008EF
:10013000210F00080000000000000000210F00084F
:10014000210F0008210F0008210F0008210F0008CF
:10015000210F0008210F0008210F0008210F0008BF
:10016000210F0008210F0008210F0008210F0008AF
:10017000210F0008210F0008210F000800000000D7
:1001800000000000210F0008000000000000000037
:10019000210F00080000000000000000210F0008EF
:1001A000000000000000000000000000210F000817
:1001B000210F0008210F0008210F0008210F00085F
:0401C000210F000803
:1001C40053B94AB9002908BF00281CBF4FF0FF31BA
:1001D4004FF0FF3000F00CB8ADF1080C6DE904CE1F
:1001E40000F0CAFEDDF804E0DDE9022304B0704744
:1001F400704700BF0348044B834202D0034B03B152
:10020400184770470C0000200C000020000000007C
:100214000548064B1B1AD90F01EBA301491002D064
:10022400034B03B1184770470C0000200C0000205A
:100234000000000010B5064C237843B9FFF7DAFF3D
:10024400044B13B10448AFF300800123237010BDA5
:100254000C000020000000007412000808B5054BD3
:100264001BB105490548AFF30080BDE80840FFF71E
:10027400CFBF00BF0000000010000020741200086F
:1002840000B587B0002300930C4A116B41F00101C3
:100294001163126B02F001020092009A01A901930A
:1002A4004B608B60CB600B6120230193012302938D
:1002B400034800F041FC07B05DF804FB003802403D
:1002C4000000024008B52021014800F025FD08BDCA
:1002D4000000024072B6FEE710B594B007AC3422B9
:1002E4000021204600F01BFE002302930393049395
:1002F4000593069300931F4A116C41F080511164D9
:10030400126C02F080520092009A01931A490A6812
:1003140022F4404242F480420A600A6802F44042F5
:100324000192019A0222079201210A9110210B9154
:100334000D920E930F914FF4A8731093042311930D
:1003440012921392204600F0D5F978B90F23029344
:1003540002210391002304934FF4805205920693E3
:1003640002A800F04FF818B914B010BDFFF7B2FF9F
:10037400FFF7B0FF003802400070004008B500F0FD
:1003840065FDFFF7A9FFFFF77BFFFFF79BFF4FF426
:10039400FA7000F087FDF8E700B583B00021009102
:1003A4000C4B5A6C42F480425A645A6C02F48042F8
:1003B4000092009A01911A6C42F080521A641B6CEC
:1003C40003F080530193019B072000F0E3FC03B08A
:1003D4005DF804FB00380240FEE7FEE7FEE7FEE7B7
:1003E400FEE770477047704708B500F049FD08BD47
:1003F400034AD2F8883043F47003C2F88830704757
:1004040000ED00E0002800F09B8070B50D46044626
:100414004F4B1B6803F00F038B4208D2CBB24C4AFC
:100424001370136803F00F038B4240F08B80236832
:1004340013F0020F17D013F0040F04D0454A936849
:1004440043F4E0539360236813F0080F04D0414A47
:10045400936843F4604393603E4A936823F0F00347
:10046400A1680B439360236813F0010F32D06368D3
:10047400012B21D09A1E012A25D9364A126812F07E
:10048400020F61D033498A6822F0030213438B6060
:1004940000F002FD06462F4B9B6803F00C036268D4
:1004A400B3EB820F16D000F0F7FC801B41F28833C7
:1004B4009842F0D9032042E0264A126812F4003F21
:1004C400E0D101203BE0234A126812F0007FD9D129
:1004D400012034E01E4B1B6803F00F03AB4207D925
:1004E400EAB21B4B1A701B6803F00F03AB422DD109
:1004F400236813F0040F06D0164A936823F4E053DC
:10050400E1680B439360236813F0080F07D0114A86
:10051400936823F46043216943EAC103936000F0C4
:1005240021F80C4B9B68C3F303130B4AD35CD840EC
:100534000A4B18600A4B186800F062FC002070BD7A
:10054400012070470120FAE70120F8E70120F6E7CF
:10055400003C0240003802408C12000800000020D9
:100564000800002008B5604B9B6803F00C03082BBF
:1005740006D00C2B5ED0042B40F0B4805B4833E0F3
:10058400594B5A6802F03F025B6813F4800F2CD079
:10059400554B5868C0F388104FEA401CBCEB000C64
:1005A4006EEB0E0E4FEA8E1343EA9C634FEA8C11F6
:1005B400B1EB0C0163EB0E03DB0043EA5173C9009A
:1005C40011EB000C43F10003590200234FEA4C20C5
:1005D40041EADC51FFF7F4FD434B5B68C3F301438D
:1005E40001335B00B0FBF3F008BD3F4B5868C0F328
:1005F40088104FEA401CBCEB000C6EEB0E0E4FEA69
:100604008E1343EA9C634FEA8C11B1EB0C0163EB4C
:100614000E03DB0043EA5173C90011EB000C43F1F4
:100624000003990200234FEA8C2041EA9C51FFF712
:10063400C7FDD1E72C4B5A6802F03F025B6813F404
:10064400800F2AD0284B5868C0F388104FEA401C0A
:10065400BCEB000C6EEB0E0E4FEA8E1343EA9C6368
:100664004FEA8C11B1EB0C0163EB0E03DB0043EAA0
:100674005173C90011EB000C43F10003590200232C
:100684004FEA4C2041EADC51FFF79AFD164B5B68B8
:10069400C3F30273B0FBF3F0A6E7134B5868C0F33F
:1006A40088104FEA401CBCEB000C6EEB0E0E4FEAB8
:1006B4008E1343EA9C634FEA8C11B1EB0C0163EB9C
:1006C4000E03DB0043EA5173C90011EB000C43F144
:1006D4000003990200234FEA8C2041EA9C51FFF762
:1006E4006FFDD3E702487FE70038024000127A002A
:1006F4000024F400002800F0018270B582B00446A2
:10070400036813F0010F41D0994B9B6803F00C036D
:10071400042B32D0964B9B6803F00C03082B27D094
:10072400934B9B6803F00C030C2B59D06368B3F50F
:10073400803F5BD0B3F5A02F5ED08D4B1A6822F4B6
:1007440080321A601A6822F480221A606368002BCF
:100754005CD000F0A1FB0546854B1B6813F4003FF9
:1007640014D100F099FB401B6428F5D90320CCE197
:100774007F4B5B6813F4800FD2D07D4B1B6813F45E
:10078400003F03D06368002B00F0BA81236813F0A4
:10079400020F60D0764B9B6813F00C0F4AD0744B59
:1007A4009B6803F00C03082B3FD0714B9B6803F04C
:1007B4000C030C2B69D0E368002B75D06D4B012220
:1007C4001A6000F069FB0546694B1B6813F0020FC1
:1007D40061D100F061FB401B0228F5D9032094E1AC
:1007E400634B5B6813F4800FA0D0C6E7604A1368BC
:1007F40043F480331360A9E75D4B1A6842F4802206
:100804001A601A6842F480321A609FE700F044FBD1
:100814000546574B1B6813F4003FB7D000F03CFB70
:10082400401B6428F5D903206FE1514B5B6813F436
:10083400800FBAD14E4B1B6813F0020F03D0E3684C
:10084400012B40F05F814A4A136823F0F8032169C1
:1008540043EAC1031360236813F0080F49D06369A6
:10086400002B33D0434B0122C3F8802E00F014FB3D
:1008740005463F4B5B6F13F0020F3AD100F00CFBBF
:10088400401B0228F5D903203FE1394B5B6813F480
:10089400800F90D1CEE7364A136823F0F80321691C
:1008A40043EAC1031360D6E7324B00221A6000F01A
:1008B400F3FA05462E4B1B6813F0020FCBD000F061
:1008C400EBFA401B0228F5D903201EE1294B002234
:1008D400C3F8802E00F0E0FA0546254B5B6F13F059
:1008E400020F06D000F0D8FA401B0228F5D90320E5
:1008F4000BE1236813F0040F76D01D4B1B6C13F02F
:10090400805F33D100230193194B1A6C42F080525B
:100914001A641B6C03F080530193019B0125164B51
:100924001B6813F4807F29D0A368012B3AD0052BD0
:100934003ED00F4B1A6F22F001021A671A6F22F091
:1009440004021A67A368002B3CD000F0A5FA0646FF
:10095400074B1B6F13F0020F45D100F09DFA801B6B
:1009640041F288339842F3D90320CEE00025D6E73C
:100974000038024000004742007000406B4A136890
:1009840043F48073136000F087FA0646674B1B68D4
:1009940013F4807FC8D100F07FFA801B0228F5D9B8
:1009A4000320B2E0624A136F43F001031367C9E7FF
:1009B4005F4B1A6F42F004021A671A6F42F0010289
:1009C4001A67BFE700F068FA0646594B1B6F13F02D
:1009D400020F08D000F060FA801B41F2883398427D
:1009E400F3D9032091E0EDB9A369002B00F08C80CA
:1009F4004F4A926802F00C02082A54D0022B17D0F6
:100A04004C4B00221A6600F047FA0446484B1B6818
:100A140013F0007F45D000F03FFA001B0228F5D9FF
:100A2400032072E0424A136C23F080531364DBE723
:100A3400404B00221A6600F02FFA05463C4B1B6817
:100A440013F0007F06D000F027FA401B0228F5D9E6
:100A540003205AE0E369226A1343626A43EA821379
:100A6400A26A5208013A43EA0243E26A43EA026391
:100A7400226B43EA02732E4A53602E4B01221A66FC
:100A840000F00AFA04462A4B1B6813F0007F06D1D3
:100A940000F002FA001B0228F5D9032035E00020FB
:100AA40033E0002031E0012B31D0214B5B6803F4AB
:100AB4008001E26991422CD103F03F02216A8A420B
:100AC40029D1616A47F6C0721A40B2EB811F24D162
:100AD40003F44031A26A5208013AB1EB024F1ED12D
:100AE40003F07062E16AB2EB016F1AD103F0E043E4
:100AF400226BB3EB027F16D1002006E00120704781
:100B0400012002E0012000E0002002B070BD0120BD
:100B1400FBE70120F9E70120F7E70120F5E70120D1
:100B2400F3E70120F1E70120EFE700BF0070004088
:100B3400003802400000474200230F2B00F2E380FC
:100B440070B582B065E085684FEA430E032404FA69
:100B54000EF425EA0405CC6804FA0EF42C438460F0
:100B6400446824EA02044A68C2F300129A40224309
:100B740042605CE0DC08083450F8242003F00705E8
:100B8400AD004FF00F0E0EFA05FE22EA0E0E0A69B2
:100B9400AA4042EA0E0240F824205CE0062200E06B
:100BA400002202FA0EF22A430234574D45F824205B
:100BB400564A94686FEA0C0224EA0C054E6816F44F
:100BC400801F01D04CEA0405504CA560E46802EA99
:100BD40004054E6816F4001F01D04CEA04054B4C82
:100BE400E560646802EA04054E6816F4003F01D02B
:100BF4004CEA0405454C6560246822404D6815F4B0
:100C0400803F01D04CEA0402404C226001330F2B98
:100C140077D801229A400C6804EA020C32EA0404F0
:100C2400F4D14C6804F00304013C012C8BD94A68CC
:100C340002F00302032A09D0C4685D000322AA401B
:100C440024EA02048A68AA402243C2604A6802F085
:100C54000302022A8ED004684FEA430E032202FAEA
:100C64000EF224EA02044A6802F0030202FA0EF2C7
:100C7400224302604A6812F4403FC7D00022019226
:100C8400234A546C44F480445464526C02F4804209
:100C94000192019A9C08A51C1B4A52F8255003F0A6
:100CA400030E4FEA8E0E0F2202FA0EF225EA020517
:100CB400184A90423FF474AF02F58062904216D015
:100CC40002F58062904214D002F58062904212D004
:100CD40002F58062904210D002F5806290420ED0FC
:100CE40002F5806290423FF459AF072259E701228E
:100CF40057E7022255E7032253E7042251E705226E
:100D04004FE702B070BD704700380140003C01401D
:100D14000038024000000240436901EA030221EA6C
:100D2400030141EA0241816170470000002808DBA9
:100D34000901C9B200F1604000F5614080F8001378
:100D4400704700F00F000901C9B2014B19547047F4
:100D540014ED00E000B500F00700C0F1070CBCF191
:100D6400040F28BF4FF0040C031D062B0FD9C31E1C
:100D74004FF0FF3E0EFA0CF021EA000199400EFA02
:100D840003FE22EA0E0241EA02005DF804FB00239E
:100D9400EEE70000074AD36823F4E0631B041B0C4E
:100DA400000200F4E060034343F0BF6343F4003304
:100DB400D360704700ED00E010B50446054BD868D9
:100DC400C0F30220FFF7C6FF01462046FFF7AEFF3F
:100DD40010BD00BF00ED00E00138B0F1807F0BD200
:100DE4004FF0E0235861054AF02182F823100020D7
:100DF400986107221A6170470120704700ED00E0F6
:100E040010B504460E4B1A784FF47A73B3FBF2F321
:100E14000C4A1068B0FBF3F0FFF7DEFF68B90F2C43
:100E240001D901200AE0002221464FF0FF30FFF7EC
:100E3400C3FF054B1C60002000E0012010BD00BF73
:100E440004000020000000200800002008B50B4B1F
:100E54001A6842F400721A601A6842F480621A60D6
:100E64001A6842F480721A600320FFF793FF00208F
:100E7400FFF7C6FFFFF790FA002008BD003C0240D0
:100E8400034A1168034B1B780B441360704700BF7F
:100E94002800002004000020014B1868704700BFA0
:100EA4002800002038B50446FFF7F6FF0546B4F1E4
:100EB400FF3F02D0044B1B781C44FFF7EDFF401B9F
:100EC400A042FAD338BD00BF04000020DFF834D0BC
:100ED400FFF78EFA0C480D490D4A002302E0D4585E
:100EE400C4500433C4188C42F9D30A4A0A4C002370
:100EF40001E013600432A242FBD300F019F8FFF7BB
:100F04003DFA704700000220000000200C00002081
:100F1400AC1200080C0000202C000020FEE7024464
:100F24000346934200D1704703F8011BF9E7000020
:100F340070B50D4B0D4D5B1B9C100026A64209D1CC
:100F440000F096F90A4D0B4B5B1B9C100026A64241
:100F540005D170BD55F8043B98470136EEE755F8C6
:100F6400043B98470136F2E7A4120008A4120008D3
:100F7400A4120008A81200082DE9F047089D0F46A6
:100F840004468C46002B48D18A42164661D9B2FAEF
:100F940082F34BB1C3F1200201FA03FC20FA02F2FE
:100FA4009E4042EA0C0C9C404FEA164EB7B2BCFB82
:100FB400FEF1220C0EFB11CC42EA0C4201FB07F0BD
:100FC400904209D9B21801F1FF3C80F0EE809042C2
:100FD40040F2EB8002393244121AA4B2B2FBFEF0A2
:100FE4000EFB102244EA024400FB07F7A74209D98A
:100FF400341900F1FF3280F0DA80A74240F2D78042
:101004003444023840EA0140E41B00211DB1DC40B5
:101014000023C5E90043BDE8F0878B4206D90DB132
:10102400C5E9000100210846BDE8F087B3FA83F161
:10103400002948D1BB4202D3824200F20781841ABC
:1010440067EB030201209446002DE4D0C5E9004C6F
:10105400E1E7002A00F09280B2FA82F3002B40F01C
:10106400A8808A1A4FEA164E1FFA86FC0121200C2A
:10107400B2FBFEF70EFB172240EA02420CFB07F01C
:10108400904207D9B21807F1FF3802D2904200F219
:10109400E2804746121AA4B2B2FBFEF00EFB102205
:1010A40044EA02440CFB00FCA44507D9341900F1BE
:1010B400FF3202D2A44500F2CB801046A4EB0C040C
:1010C40040EA0740A2E7C1F120068B4022FA06FC61
:1010D4004CEA030C07FA01F420FA06F3F7404FEA4E
:1010E4001C49234300FA01F81FFA8CFEB7FBF9F000
:1010F4001C0C09FB107744EA074400FB0EF7A742D7
:1011040002FA01F20AD91CEB040400F1FF3A80F060
:101114009B80A74240F2988002386444E41B9FB24B
:10112400B4FBF9F309FB134447EA044403FB0EFE42
:10113400A64509D91CEB040403F1FF3780F0828033
:10114400A6457FD9023B644443EA0040A4EB0E0465
:10115400A0FB02E7BC427346B94663D360D05DB1DD
:10116400B8EB030264EB090404FA06F622FA01F36D
:101174001E43CC40C5E9006400214CE762084808DE
:1011840042EAC1710B0C43EA00438AB242EA0342C9
:10119400B3FBF6F1E407B4463746B6461F23B0FB6B
:1011A400F6F0D21B41EA004161E7614614E71046BC
:1011B40028E7C3F1200120FA01F29E4027FA01F149
:1011C4009F403A434FEA164E1FFA86FCB1FBFEF7E6
:1011D4000EFB1710110C41EA004107FB0CF888457F
:1011E40004FA03F43AD9711807F1FF3001D28845A3
:1011F4001FD8A1EB0801B1FBFEF808FB0CF70EFBAE
:10120400181192B242EA0142BA422FD2B21808F13E
:10121400FF31C6D2BA42C4D2A8F102013244C0E7B7
:10122400F0459CD2BEEB020367EB0C070138B946CC
:1012340095E7A6EB08084144B81EB1FBFEF808FB8D
:101244000CF7DCE73B467FE7504667E70846FBE6DA
:101254003444023832E7023F32441BE7A1EB080171
:101264003846B1FBFEF808FB0CF7C8E7414698E79F
:10127400F8B500BFF8BC08BC9E467047F8B500BF7F
:08128400F8BC08BC9E4670474F
:10128C00000000000000000001020304060708092A
:08129C00E0FCFF7F01000000EF
:0412A40061020008DB
:0412A80039020008FF
:0C12AC000024F40001000000100000000D
:0400000508000ED110
:00000001FF
